{
  "_format": "hh-sol-artifact-1",
  "contractName": "Web3RSVP",
  "sourceName": "contracts/Web3RSVP.sol",
  "abi": [
    {
      "anonymous": false,
      "inputs": [
        {
          "indexed": false,
          "internalType": "bytes32",
          "name": "eventID",
          "type": "bytes32"
        },
        {
          "indexed": false,
          "internalType": "address",
          "name": "attendeeAddress",
          "type": "address"
        }
      ],
      "name": "ConfirmedAttendee",
      "type": "event"
    },
    {
      "anonymous": false,
      "inputs": [
        {
          "indexed": false,
          "internalType": "bytes32",
          "name": "eventID",
          "type": "bytes32"
        }
      ],
      "name": "DepositsPaidOut",
      "type": "event"
    },
    {
      "anonymous": false,
      "inputs": [
        {
          "indexed": false,
          "internalType": "bytes32",
          "name": "eventID",
          "type": "bytes32"
        },
        {
          "indexed": false,
          "internalType": "address",
          "name": "creatorAddress",
          "type": "address"
        },
        {
          "indexed": false,
          "internalType": "uint256",
          "name": "eventTimestamp",
          "type": "uint256"
        },
        {
          "indexed": false,
          "internalType": "uint256",
          "name": "maxCapacity",
          "type": "uint256"
        },
        {
          "indexed": false,
          "internalType": "uint256",
          "name": "deposit",
          "type": "uint256"
        },
        {
          "indexed": false,
          "internalType": "string",
          "name": "eventDataCID",
          "type": "string"
        }
      ],
      "name": "NewEventCreated",
      "type": "event"
    },
    {
      "anonymous": false,
      "inputs": [
        {
          "indexed": false,
          "internalType": "bytes32",
          "name": "eventID",
          "type": "bytes32"
        },
        {
          "indexed": false,
          "internalType": "address",
          "name": "attendeeAddress",
          "type": "address"
        }
      ],
      "name": "NewRSVP",
      "type": "event"
    },
    {
      "inputs": [
        {
          "internalType": "bytes32",
          "name": "eventId",
          "type": "bytes32"
        }
      ],
      "name": "confirmAllAttendees",
      "outputs": [],
      "stateMutability": "nonpayable",
      "type": "function"
    },
    {
      "inputs": [
        {
          "internalType": "bytes32",
          "name": "eventId",
          "type": "bytes32"
        },
        {
          "internalType": "address",
          "name": "attendee",
          "type": "address"
        }
      ],
      "name": "confirmAttendee",
      "outputs": [],
      "stateMutability": "nonpayable",
      "type": "function"
    },
    {
      "inputs": [
        {
          "internalType": "uint256",
          "name": "eventTimestamp",
          "type": "uint256"
        },
        {
          "internalType": "uint256",
          "name": "deposit",
          "type": "uint256"
        },
        {
          "internalType": "uint256",
          "name": "maxCapacity",
          "type": "uint256"
        },
        {
          "internalType": "string",
          "name": "eventDataCID",
          "type": "string"
        }
      ],
      "name": "createNewEvent",
      "outputs": [],
      "stateMutability": "nonpayable",
      "type": "function"
    },
    {
      "inputs": [
        {
          "internalType": "bytes32",
          "name": "eventId",
          "type": "bytes32"
        }
      ],
      "name": "createNewRSVP",
      "outputs": [],
      "stateMutability": "payable",
      "type": "function"
    },
    {
      "inputs": [
        {
          "internalType": "bytes32",
          "name": "",
          "type": "bytes32"
        }
      ],
      "name": "idToEvent",
      "outputs": [
        {
          "internalType": "bytes32",
          "name": "eventId",
          "type": "bytes32"
        },
        {
          "internalType": "string",
          "name": "eventDataCID",
          "type": "string"
        },
        {
          "internalType": "address",
          "name": "eventOwner",
          "type": "address"
        },
        {
          "internalType": "uint256",
          "name": "eventTimestamp",
          "type": "uint256"
        },
        {
          "internalType": "uint256",
          "name": "deposit",
          "type": "uint256"
        },
        {
          "internalType": "uint256",
          "name": "maxCapacity",
          "type": "uint256"
        },
        {
          "internalType": "bool",
          "name": "paidOut",
          "type": "bool"
        }
      ],
      "stateMutability": "view",
      "type": "function"
    },
    {
      "inputs": [
        {
          "internalType": "bytes32",
          "name": "eventId",
          "type": "bytes32"
        }
      ],
      "name": "withdrawUnclaimedDeposits",
      "outputs": [],
      "stateMutability": "nonpayable",
      "type": "function"
    }
  ],
  "bytecode": "0x608060405234801561001057600080fd5b50612179806100206000396000f3fe6080604052600436106100545760003560e01c806292098c1461005957806317f0165a146100825780636dcdf2cd1461009e57806379747571146100c7578063909ef021146100f0578063acdbe01214610133575b600080fd5b34801561006557600080fd5b50610080600480360381019061007b919061115c565b61015c565b005b61009c6004803603810190610097919061121a565b610378565b005b3480156100aa57600080fd5b506100c560048036038101906100c091906112a5565b6105e5565b005b3480156100d357600080fd5b506100ee60048036038101906100e9919061121a565b610ac6565b005b3480156100fc57600080fd5b506101176004803603810190610112919061121a565b610d71565b60405161012a97969594939291906113c6565b60405180910390f35b34801561013f57600080fd5b5061015a6004803603810190610155919061121a565b610e68565b005b600033308787876040516020016101779594939291906114a5565b60405160208183030381529060405280519060200120905060608060405180610120016040528084815260200186868080601f016020809104026020016040519081016040528093929190818152602001838380828437600081840152601f19601f8201169050808301925050505050505081526020013373ffffffffffffffffffffffffffffffffffffffff16815260200189815260200188815260200187815260200183815260200182815260200160001515815250600080858152602001908152602001600020600082015181600001556020820151816001019080519060200190610267929190610f8a565b5060408201518160020160006101000a81548173ffffffffffffffffffffffffffffffffffffffff021916908373ffffffffffffffffffffffffffffffffffffffff160217905550606082015181600301556080820151816004015560a0820151816005015560c08201518160060190805190602001906102e9929190611010565b5060e0820151816007019080519060200190610306929190611010565b506101008201518160080160006101000a81548160ff0219169083151502179055509050507f2553138c3f9c9008f266dbdbe9fc64f5b71e098d06ef714a190a65a8b9fc6bf383338a898b8a8a6040516103669796959493929190611540565b60405180910390a15050505050505050565b60008060008381526020019081526020016000209050806004015434146103d4576040517f08c379a00000000000000000000000000000000000000000000000000000000081526004016103cb906115f6565b60405180910390fd5b806003015442111561041b576040517f08c379a000000000000000000000000000000000000000000000000000000000815260040161041290611662565b60405180910390fd5b8060050154816006018054905010610468576040517f08c379a000000000000000000000000000000000000000000000000000000000815260040161045f906116f4565b60405180910390fd5b60005b81600601805490508160ff161015610542573373ffffffffffffffffffffffffffffffffffffffff16826006018260ff16815481106104ad576104ac611714565b5b9060005260206000200160009054906101000a900473ffffffffffffffffffffffffffffffffffffffff1673ffffffffffffffffffffffffffffffffffffffff16141561052f576040517f08c379a0000000000000000000000000000000000000000000000000000000008152600401610526906117b5565b60405180910390fd5b808061053a90611811565b91505061046b565b5080600601339080600181540180825580915050600190039060005260206000200160009091909190916101000a81548173ffffffffffffffffffffffffffffffffffffffff021916908373ffffffffffffffffffffffffffffffffffffffff1602179055507fb79f4240bbdd272d98e02a5db7f0cf156e5fc000961c517670a26eeeec63ed9082336040516105d992919061183b565b60405180910390a15050565b600080600084815260200190815260200160002090508060020160009054906101000a900473ffffffffffffffffffffffffffffffffffffffff1673ffffffffffffffffffffffffffffffffffffffff163373ffffffffffffffffffffffffffffffffffffffff161461068d576040517f08c379a0000000000000000000000000000000000000000000000000000000008152600401610684906118fc565b60405180910390fd5b600080600090505b82600601805490508160ff161015610778578373ffffffffffffffffffffffffffffffffffffffff16836006018260ff16815481106106d7576106d6611714565b5b9060005260206000200160009054906101000a900473ffffffffffffffffffffffffffffffffffffffff1673ffffffffffffffffffffffffffffffffffffffff16141561076557826006018160ff168154811061073757610736611714565b5b9060005260206000200160009054906101000a900473ffffffffffffffffffffffffffffffffffffffff1691505b808061077090611811565b915050610695565b508273ffffffffffffffffffffffffffffffffffffffff168173ffffffffffffffffffffffffffffffffffffffff16146107e7576040517f08c379a00000000000000000000000000000000000000000000000000000000081526004016107de9061198e565b60405180910390fd5b60005b82600701805490508160ff1610156108c1578373ffffffffffffffffffffffffffffffffffffffff16836007018260ff168154811061082c5761082b611714565b5b9060005260206000200160009054906101000a900473ffffffffffffffffffffffffffffffffffffffff1673ffffffffffffffffffffffffffffffffffffffff1614156108ae576040517f08c379a00000000000000000000000000000000000000000000000000000000081526004016108a590611a20565b60405180910390fd5b80806108b990611811565b9150506107ea565b50600015158260080160009054906101000a900460ff1615151461091a576040517f08c379a000000000000000000000000000000000000000000000000000000000815260040161091190611ab2565b60405180910390fd5b81600701839080600181540180825580915050600190039060005260206000200160009091909190916101000a81548173ffffffffffffffffffffffffffffffffffffffff021916908373ffffffffffffffffffffffffffffffffffffffff16021790555060008373ffffffffffffffffffffffffffffffffffffffff1683600401546040516109a990611b03565b60006040518083038185875af1925050503d80600081146109e6576040519150601f19603f3d011682016040523d82523d6000602084013e6109eb565b606091505b50509050600015158115151415610a465782600701805480610a1057610a0f611b18565b5b6001900381819060005260206000200160006101000a81549073ffffffffffffffffffffffffffffffffffffffff021916905590555b80610a86576040517f08c379a0000000000000000000000000000000000000000000000000000000008152600401610a7d90611c05565b60405180910390fd5b7ff8d1583a733d83bdd3ef5464129d0a95a36d62b382d31c6d0467a61f4264381b8585604051610ab792919061183b565b60405180910390a15050505050565b600080600083815260200190815260200160002090508060080160009054906101000a900460ff1615610b2e576040517f08c379a0000000000000000000000000000000000000000000000000000000008152600401610b2590611cbd565b60405180910390fd5b62093a808160030154610b419190611cdd565b421015610b83576040517f08c379a0000000000000000000000000000000000000000000000000000000008152600401610b7a90611dcb565b60405180910390fd5b8060020160009054906101000a900473ffffffffffffffffffffffffffffffffffffffff1673ffffffffffffffffffffffffffffffffffffffff163373ffffffffffffffffffffffffffffffffffffffff1614610c15576040517f08c379a0000000000000000000000000000000000000000000000000000000008152600401610c0c90611ea9565b60405180910390fd5b600081600701805490508260060180549050610c319190611ec9565b90506000826004015482610c459190611efd565b905060018360080160006101000a81548160ff02191690831515021790555060003373ffffffffffffffffffffffffffffffffffffffff1682604051610c8a90611b03565b60006040518083038185875af1925050503d8060008114610cc7576040519150601f19603f3d011682016040523d82523d6000602084013e610ccc565b606091505b5050905080610cf35760008460080160006101000a81548160ff0219169083151502179055505b80610d33576040517f08c379a0000000000000000000000000000000000000000000000000000000008152600401610d2a90611fef565b60405180910390fd5b7f393073ea1365f611c3d2f240c992960d2b99dc81715555d3fc40fc55ba80af9c85604051610d62919061200f565b60405180910390a15050505050565b6000602052806000526040600020600091509050806000015490806001018054610d9a90612059565b80601f0160208091040260200160405190810160405280929190818152602001828054610dc690612059565b8015610e135780601f10610de857610100808354040283529160200191610e13565b820191906000526020600020905b815481529060010190602001808311610df657829003601f168201915b5050505050908060020160009054906101000a900473ffffffffffffffffffffffffffffffffffffffff16908060030154908060040154908060050154908060080160009054906101000a900460ff16905087565b600080600083815260200190815260200160002090503373ffffffffffffffffffffffffffffffffffffffff168160020160009054906101000a900473ffffffffffffffffffffffffffffffffffffffff1673ffffffffffffffffffffffffffffffffffffffff1614610f10576040517f08c379a0000000000000000000000000000000000000000000000000000000008152600401610f0790612123565b60405180910390fd5b60005b81600601805490508160ff161015610f8557610f7283836006018360ff1681548110610f4257610f41611714565b5b9060005260206000200160009054906101000a900473ffffffffffffffffffffffffffffffffffffffff166105e5565b8080610f7d90611811565b915050610f13565b505050565b828054610f9690612059565b90600052602060002090601f016020900481019282610fb85760008555610fff565b82601f10610fd157805160ff1916838001178555610fff565b82800160010185558215610fff579182015b82811115610ffe578251825591602001919060010190610fe3565b5b50905061100c919061109a565b5090565b828054828255906000526020600020908101928215611089579160200282015b828111156110885782518260006101000a81548173ffffffffffffffffffffffffffffffffffffffff021916908373ffffffffffffffffffffffffffffffffffffffff16021790555091602001919060010190611030565b5b509050611096919061109a565b5090565b5b808211156110b357600081600090555060010161109b565b5090565b600080fd5b600080fd5b6000819050919050565b6110d4816110c1565b81146110df57600080fd5b50565b6000813590506110f1816110cb565b92915050565b600080fd5b600080fd5b600080fd5b60008083601f84011261111c5761111b6110f7565b5b8235905067ffffffffffffffff811115611139576111386110fc565b5b60208301915083600182028301111561115557611154611101565b5b9250929050565b600080600080600060808688031215611178576111776110b7565b5b6000611186888289016110e2565b9550506020611197888289016110e2565b94505060406111a8888289016110e2565b935050606086013567ffffffffffffffff8111156111c9576111c86110bc565b5b6111d588828901611106565b92509250509295509295909350565b6000819050919050565b6111f7816111e4565b811461120257600080fd5b50565b600081359050611214816111ee565b92915050565b6000602082840312156112305761122f6110b7565b5b600061123e84828501611205565b91505092915050565b600073ffffffffffffffffffffffffffffffffffffffff82169050919050565b600061127282611247565b9050919050565b61128281611267565b811461128d57600080fd5b50565b60008135905061129f81611279565b92915050565b600080604083850312156112bc576112bb6110b7565b5b60006112ca85828601611205565b92505060206112db85828601611290565b9150509250929050565b6112ee816111e4565b82525050565b600081519050919050565b600082825260208201905092915050565b60005b8381101561132e578082015181840152602081019050611313565b8381111561133d576000848401525b50505050565b6000601f19601f8301169050919050565b600061135f826112f4565b61136981856112ff565b9350611379818560208601611310565b61138281611343565b840191505092915050565b61139681611267565b82525050565b6113a5816110c1565b82525050565b60008115159050919050565b6113c0816113ab565b82525050565b600060e0820190506113db600083018a6112e5565b81810360208301526113ed8189611354565b90506113fc604083018861138d565b611409606083018761139c565b611416608083018661139c565b61142360a083018561139c565b61143060c08301846113b7565b98975050505050505050565b60008160601b9050919050565b60006114548261143c565b9050919050565b600061146682611449565b9050919050565b61147e61147982611267565b61145b565b82525050565b6000819050919050565b61149f61149a826110c1565b611484565b82525050565b60006114b1828861146d565b6014820191506114c1828761146d565b6014820191506114d1828661148e565b6020820191506114e1828561148e565b6020820191506114f1828461148e565b6020820191508190509695505050505050565b82818337600083830152505050565b600061151f83856112ff565b935061152c838584611504565b61153583611343565b840190509392505050565b600060c082019050611555600083018a6112e5565b611562602083018961138d565b61156f604083018861139c565b61157c606083018761139c565b611589608083018661139c565b81810360a083015261159c818486611513565b905098975050505050505050565b7f4e6f7420656e6f7567682045544820746f205253565020746f206576656e742e600082015250565b60006115e06020836112ff565b91506115eb826115aa565b602082019050919050565b6000602082019050818103600083015261160f816115d3565b9050919050565b7f536f7272792c2063616e2774205253565020746f2070617374206576656e7421600082015250565b600061164c6020836112ff565b915061165782611616565b602082019050919050565b6000602082019050818103600083015261167b8161163f565b9050919050565b7f536f7272792c2074686973206576656e7420686173207265616368656420636160008201527f7061636974792100000000000000000000000000000000000000000000000000602082015250565b60006116de6027836112ff565b91506116e982611682565b604082019050919050565b6000602082019050818103600083015261170d816116d1565b9050919050565b7f4e487b7100000000000000000000000000000000000000000000000000000000600052603260045260246000fd5b7f596f7527726520616c6c20726561647920636f6e6669726d656420746f20617460008201527f74656e642074686973206576656e742e00000000000000000000000000000000602082015250565b600061179f6030836112ff565b91506117aa82611743565b604082019050919050565b600060208201905081810360008301526117ce81611792565b9050919050565b7f4e487b7100000000000000000000000000000000000000000000000000000000600052601160045260246000fd5b600060ff82169050919050565b600061181c82611804565b915060ff8214156118305761182f6117d5565b5b600182019050919050565b600060408201905061185060008301856112e5565b61185d602083018461138d565b9392505050565b7f596f75277265206e6f7420617574686f72697a656420746f20636f6e6669726d60008201527f20617474656e646565732e204f6e6c7920746865206576656e74206f776e657260208201527f2063616e20646f20746869732100000000000000000000000000000000000000604082015250565b60006118e6604d836112ff565b91506118f182611864565b606082019050919050565b60006020820190508181036000830152611915816118d9565b9050919050565b7f536f7272792c207468657265206973206e6f205253565020746f20636f6e666960008201527f726d000000000000000000000000000000000000000000000000000000000000602082015250565b60006119786022836112ff565b91506119838261191c565b604082019050919050565b600060208201905081810360008301526119a78161196b565b9050919050565b7f536f7272792c20796f7527766520616c6c20726561647920636c61696d65642060008201527f796f757220525356502100000000000000000000000000000000000000000000602082015250565b6000611a0a602a836112ff565b9150611a15826119ae565b604082019050919050565b60006020820190508181036000830152611a39816119fd565b9050919050565b7f4d65737361676520546f204f776e65723a20536f7272792c20796f752776652060008201527f616c6c20726561647920636c61696d6564206465706f73697473210000000000602082015250565b6000611a9c603b836112ff565b9150611aa782611a40565b604082019050919050565b60006020820190508181036000830152611acb81611a8f565b9050919050565b600081905092915050565b50565b6000611aed600083611ad2565b9150611af882611add565b600082019050919050565b6000611b0e82611ae0565b9150819050919050565b7f4e487b7100000000000000000000000000000000000000000000000000000000600052603160045260246000fd5b7f4d65737361676520746f20417474656e6465653a204661696c656420746f207360008201527f656e6420455448206465706f736974206261636b2e20596f752772652052535660208201527f502073746174757320697320756e636c61696d65642e20506c6561736520747260408201527f7920616761696e21000000000000000000000000000000000000000000000000606082015250565b6000611bef6068836112ff565b9150611bfa82611b47565b608082019050919050565b60006020820190508181036000830152611c1e81611be2565b9050919050565b7f4d65737361676520746f204576656e74204f776e65723a20536f7272792c207460008201527f686520455448206465706f73697473206861766520616c72656164792062656560208201527f6e2070616964206f757421000000000000000000000000000000000000000000604082015250565b6000611ca7604b836112ff565b9150611cb282611c25565b606082019050919050565b60006020820190508181036000830152611cd681611c9a565b9050919050565b6000611ce8826110c1565b9150611cf3836110c1565b9250827fffffffffffffffffffffffffffffffffffffffffffffffffffffffffffffffff03821115611d2857611d276117d5565b5b828201905092915050565b7f4d65737361676520746f204576656e74204f776e65723a20536f72727920697460008201527f20697320746f6f206561726c7920746f20776974686472617720756e636c616960208201527f6d65642052535650206465706f736974732e0000000000000000000000000000604082015250565b6000611db56052836112ff565b9150611dc082611d33565b606082019050919050565b60006020820190508181036000830152611de481611da8565b9050919050565b7f536f72727920796f75277265206e6f7420617574686f72697a656420746f207760008201527f6974686472617720455448206465706f736974732c206f6e6c7920746865206560208201527f76656e74206f776e657220697320616c6c6f77656420746f20646f207468697360408201527f2100000000000000000000000000000000000000000000000000000000000000606082015250565b6000611e936061836112ff565b9150611e9e82611deb565b608082019050919050565b60006020820190508181036000830152611ec281611e86565b9050919050565b6000611ed4826110c1565b9150611edf836110c1565b925082821015611ef257611ef16117d5565b5b828203905092915050565b6000611f08826110c1565b9150611f13836110c1565b9250817fffffffffffffffffffffffffffffffffffffffffffffffffffffffffffffffff0483118215151615611f4c57611f4b6117d5565b5b828202905092915050565b7f4d65737361676520746f204576656e74204f776e65723a204661696c6564207460008201527f6f2073656e7420455448206465706f7369747320666f7220756e636c61696d6560208201527f642052535650732e20506c656173652074727920616761696e21000000000000604082015250565b6000611fd9605a836112ff565b9150611fe482611f57565b606082019050919050565b6000602082019050818103600083015261200881611fcc565b9050919050565b600060208201905061202460008301846112e5565b92915050565b7f4e487b7100000000000000000000000000000000000000000000000000000000600052602260045260246000fd5b6000600282049050600182168061207157607f821691505b602082108114156120855761208461202a565b5b50919050565b7f536f727279206f6e6c7920746865206f776e6572206f6620746869732065766560008201527f6e742063616e20636f6e6669726d20616c6c20617474656e646565205253565060208201527f73206174206f6e63652100000000000000000000000000000000000000000000604082015250565b600061210d604a836112ff565b91506121188261208b565b606082019050919050565b6000602082019050818103600083015261213c81612100565b905091905056fea2646970667358221220eb71aa3b2b8e61d1fdd2e25681cfc6cc8378b2b5844258bf39e2b87ec0df100064736f6c63430008090033",
  "linkReferences": {},
  "deployedLinkReferences": {}
}